:020000040000FA
:060000000A128A11F92F1B
:100C9C008312031386018701FF30880085018316B8
:100CAC0003178801890183160313860187018801C4
:100CBC0085010130890083120313890177107A149E
:100CCC00F901F801080008307906031D6E2E6F2E0D
:100CDC007D2E8312031385150511F93088007A14C3
:100CEC00771001300A128A1192260A128A110830E2
:100CFC007806031D822E832E912E83120313051664
:100D0C000511A43088007A14771001300A128A1168
:100D1C0092260A128A110800F300F101F201B12E99
:100D2C00F401F5010130F4070318F50A0030F5075A
:100D3C007508803AFF0080307F02031DA72EFF301C
:100D4C007402031CAA2EAB2E982E0130F107031847
:100D5C00F20A0030F2077208803AF000803070021C
:100D6C00031DBA2E73087102031CBD2EBE2E962EC7
:100D7C0008000A128A114E260A128A1101300A1230
:100D8C008A1192260A128A117718CD2ECE2ED52EC4
:100D9C0083120313091CD32ED42ED52EF715F71D51
:100DAC00D82ED92E132F831203130918DE2EDF2E03
:100DBC00132F77148511051287018601F901F801AB
:100DCC00B030880064300A128A1192260A128A11F5
:100DDC00831203130514A430880064300A128A119C
:100DEC0092260A128A118312031305108514F93006
:100DFC00880064300A128A1192260A128A11831210
:100E0C00031385100515C030880001300A128A11B1
:100E1C0092260A128A117A10F71101300A128A11DD
:100E2C0092260A128A117A181C2F1D2F242F831236
:100E3C000313891C222F232F242F7715771D272F7F
:100E4C00282F332F8312031389182D2F2E2F332F76
:100E5C0077110130F6007608F9077903031D372F57
:100E6C00382F3C2F01308312031387000230790690
:100E7C00031D412F422F462F02308312031387008C
:100E8C0003307906031D4B2F4C2F502F0430831247
:100E9C000313870004307906031D552F562F5A2F44
:100EAC00083083120313870005307906031D5F2F6A
:100EBC00602F642F103083120313870006307906DD
:100ECC00031D692F6A2F6E2F2030831203138700A6
:100EDC0007307906031D732F742F782F403083123F
:100EEC000313870008307906031D7D2F7E2F872F73
:100EFC0080308312031387000A128A1169260A12A2
:100F0C008A117A188A2F8B2F922F83120313091DA3
:100F1C00902F912F922FF714F71C952F962FA12F0E
:100F2C008312031309199B2F9C2FA12FF71001304B
:100F3C00F6007608F8077803031DA52FA62FAA2F15
:100F4C00013083120313860002307806031DAF2F85
:100F5C00B02FB42F023083120313860003307806AF
:100F6C00031DB92FBA2FBE2F043083120313860032
:100F7C0004307806031DC32FC42FC82F08308312EA
:100F8C000313860005307806031DCD2FCE2FD22FEC
:100F9C00103083120313860006307806031DD72FFA
:100FAC00D82FDC2F203083120313860007307806ED
:100FBC00031DE12FE22FE62F40308312031386002E
:100FCC0008307806031DEB2FEC2FC42E80308312D3
:100FDC00031386000A128A1169260A128A11C42E7A
:100FEC000A128A110028F701F801F90183010A128B
:040FFC008A11BF2E69
:04400E00D1E0FFFFFF
:00000001FF
